:03099B0000000059
:10071F004D003941542B43574D4F44453D320D0A3F
:10072F006026004641542B43575341503D274553B4
:10073F005038323636272C2730313233343536376E
:10074F003839272C31312C300D0A48006E41542B8B
:10075F005253540D0A4D000041542B4349504D55EF
:10076F00583D310D0A55001C41542B4349505345F8
:10077F00525645523D312C353030300D0A4D000E5A
:10078F0041542B43495053454E443D0D0A440032CA
:04079F000000000056
:0E089B003EF583E0F5997F057E007D007C0030
:0608A900900083120451CF
:1008AF00E4900087F0900087E0FFE4FCFDFE9000ED
:1008BF0083E0F8A3E0F9A3E0FAA3E0FBD31204402E
:1008CF00401200007F167E80DEFEDFFC900087E086
:0408DF0004F080D1D0
:0108E30022F2
:0A082600D2B47F647E007D007C00E8
:0608300090008312045148
:1008360090008712045D00000000E47F64FEFDFC6A
:10084600900083E0F8A3E0F9A3E0FAA3E0FB12032B
:10085600F1A804A905AA06AB07900087E0FCA3E06F
:10086600FDA3E0FEA3E0FFD31204404027900087DB
:10087600E0FCA3E0FDA3E0FEA3E0FFE4FAF9F8EF55
:100886002401FFEA3EFEE93DFDE83CFC90008712AC
:04089600045180A6E3
:01089A00223B
:04000300AB07AA0697
:100007009000007C007D0AAF03AE0212038AC3E5AD
:0A001700829FE5839E5003A380E959
:0100210022BC
:100948007F0A7E00120003C2967F1D7E00120003FC
:10095800D2967F037E00120003A296E433F97F1932
:070968007E00120003AF0145
:01096F002265
:10098200C296D296E4FF0FEFB403FBA296E433FFC4
:010992002242
:10097000C296EFB40102D2967F057E00120003D228
:020980009622BD
:05091B00900083EFF0E5
:10092000E4F9900083E0FFA801088002C313D8FC1B
:10093000900084F05401FFF01209707F057E0012D0
:07094000000309E9B408DB24
:01094700228D
:1008E4009000837401F0E4A3F0F9120982EF60151B
:1008F400900083E0FFA801088002C333D8FCFF9076
:100904000084E02FF07F067E0012000309E9B4089A
:06091400D9900084E0FF11
:01091A0022BA
:1007A4001209487FCC12091B7F4412091B12094805
:1007B4007FCC12091B7FBE12091B1208E49000387B
:1007C400EFF01208E4900037EFF0FEA3E07C002481
:1007D40000FFEC3EFEBEFF08BFFF057EFF7FFF2249
:1007E400D3EF9400EE94804026EFF4FFEEF4FEEF96
:1007F4002401FFE43EFE7C007D0512038AEF7803AA
:10080400CEC313CE13D8F92400FFEE3480FE227C2D
:10081400007D0512038AEF7803CEC313CE13D8F9F3
:01082400FFD4
:0108250022B0
:080993008F993099FDC29922F1
:08060300900083EEF0A3EFF07C
:10060B00E4A3F078867C007D017BFF7A09799BFE61
:10061B007F03120364900083E0FAA3E0FB7C037D6D
:10062B00E8FFAE0212039C7E007F64CFCDCFCECC11
:10063B00CE12039C900086EFF07C007D64AF03AE7E
:10064B000212039C7E007F0ACFCDCFCECCCE1203FD
:10065B009CA3EFF0900083E0FEA3E0FF7C007D0AFB
:10066B0012039CAF05900088EFF0900086E02430D9
:10067B00900032F0900087E02430900033F0A374A8
:07068B002EF0ED2430A3F076
:010692002245
:10048E00E4900082F0C20090006CF0A3F0E5985466
:10049E003F4440F59853A23F759A50438E0475D74A
:1004AE00D075D6FF438E10D29CD2ACD2AFE4F5B14C
:1004BE0075B2FF90006CF0C2B3C2B47FD07E07FD60
:1004CE00FC120830E4900082F0900082E0FFC364DA
:1004DE0080948D5017EF3395E0FE74392FF58274AA
:1004EE000012089B900082E004F080DD7FE87E031E
:1004FE0012082CE4900082F0900082E0FFC364802A
:10050E0094A65017EF3395E0FE74462FF5827400D3
:10051E0012089B900082E004F080DD7FB87E0B1203
:10052E00082CE4900082F0900082E0FFC364809477
:10053E00885017EF3395E0FE746E2FF5827400121B
:10054E00089B900082E004F080DD7F887E13120805
:10055E002CE4900082F0900082E0FFC36480948DC2
:10056E005017EF3395E0FE74002FF58274001208D9
:10057E009B900082E004F080DD7FD07E0712082C75
:10058E00E4900082F0900082E0FFC3648094955066
:10059E0017EF3395E0FE741C2FF582740012089B42
:1005AE00900082E004F080DD7FD07E0712082C12CE
:1005BE0007A47F507EC31200031207A47F507EC390
:1005CE001200031207A412060320930B1208A12097
:1005DE009302B2903093FD20920B1208A12092024A
:1005EE00B2913092FD2094DB1208A1209402B2B792
:0505FE002094D080FBF9
:03002300020026B2
:10002600C0E0C0F0C083C082C0D075D000C000C0A0
:0D00360001C002C003C004C005C006C00721
:10004300209803020272C29890006CE02421F8A663
:10005300997821E6FFB44505E004F0800590006C33
:10006300E4F090006CE0C3940A5003020272EF6460
:100073004560030202687822E66453600302026863
:1000830008E6645060030202687825E6FF644C705A
:100093004908E66445704308E66444703D08E6FE9B
:1000A300B4310F7824E6FDB44B02C290EDB447029D
:1000B300D290EEB4320F7824E6FEB44B02C291EE36
:1000C300B44702D2917828E6B4330F7824E6FEB41D
:1000D3004B02C2B7EEB44702D2B7EF644A701F783F
:1000E30026E6B4441908E6B4511408E6B4310F788F
:1000F30024E6FFB44B02D2B3EFB44702C2B3782471
:10010300E66446702708E6644D702108E664517082
:100113001B08E66443701508E6B45310120826C2A0
:10012300B4120828120826C2B41208287824E664F8
:1001330043600302026808E6645860030202680829
:10014300E66453600302026808E6644A600302023D
:1001530068900077209005744BF080037447F0900B
:100163000078209105744BF080037447F090007978
:1001730020B705744BF080037447F0900076E4F0E9
:10018300900076E0FFC36480948B5017EF3395E0C3
:10019300FE740E2FF582740012089B900076E00423
:1001A300F080DD7599301208A175992C1208A1759C
:1001B30099321208A17599361208A175990D120882
:1001C300A175990A1208A17599451208A175995349
:1001D3001208A17599501208A175994C1208A175BE
:1001E30099451208A17599441208A175993112080D
:1001F300A190007712089E75994C1208A175994534
:100203001208A17599441208A17599321208A19098
:10021300007812089E75994C1208A1759945120829
:10022300A17599441208A17599331208A190007918
:1002330012089E90003212089E90003312089E907E
:10024300003412089E90003512089E7599501208CA
:10025300A17599531208A17599451208A175990AB8
:100263001208A1800090006CE4F090006CE4F03080
:060273009904C299C200CB
:10027900D007D006D005D004D003D002D001D000D9
:0B028900D0D0D082D083D0F0D0E03283
:0300000002069362
:0C069300787FE4F6D8FD7581400206DA9D
:10029400E709F608DFFA8046E709F208DFFA803E4C
:1002A40088828C83E709F0A3DFFA8032E309F60839
:1002B400DFFA8078E309F208DFFA807088828C83A1
:1002C400E309F0A3DFFA806489828A83E0A3F60855
:1002D400DFFA805889828A83E0A3F208DFFA804C2F
:1002E40080D280FA80C680D4806980F28033801006
:1002F40080A680EA809A80A880DA80E280CA80336F
:1003040089828A83ECFAE493A3C8C582C8CCC583E6
:10031400CCF0A3C8C582C8CCC583CCDFE9DEE780B6
:100324000D89828A83E493A3F608DFF9ECFAA9F035
:10033400EDFB2289828A83ECFAE0A3C8C582C8CC8B
:10034400C583CCF0A3C8C582C8CCC583CCDFEADEA4
:10035400E880DB89828A83E493A3F208DFF980CC06
:1003640088F0EF60010E4E60C388F0ED2402B404FF
:100374000050B9F582EB2402B4040050AF232345A6
:0603840082239002E473E5
:10038A00EF8DF0A4A8F0CF8CF0A428CE8DF0A42E87
:02039A00FE2241
:10039C00BC000BBE0029EF8DF084FFADF022E4CC45
:1003AC00F875F008EF2FFFEE33FEEC33FCEE9DEC0E
:1003BC00984005FCEE9DFE0FD5F0E9E4CEFD22ED54
:1003CC00F8F5F0EE8420D21CFEADF075F008EF2F9E
:1003DC00FFED33FD4007985006D5F0F222C398FD8F
:0503EC000FD5F0EA222C
:1003F100E88FF0A4CC8BF0A42CFCE98EF0A42CFCAB
:100401008AF0EDA42CFCEA8EF0A4CDA8F08BF0A428
:100411002DCC3825F0FDE98FF0A42CCD35F0FCEB87
:100421008EF0A4FEA9F0EB8FF0A4CFC5F02ECD394C
:0F043100FEE43CFCEAA42DCE35F0FDE43CFC22B9
:10044000EB9FF5F0EA9E42F0E99D42F0E89C45F012
:010450002289
:0C045100ECF0A3EDF0A3EEF0A3EFF0221E
:10045D00A8828583F0D083D08212047412047412A2
:10046D000474120474E473E493A3C583C5F0C583C7
:10047D00C8C582C8F0A3C583C5F0C583C8C582C8E9
:01048D00224C
:10069F0002048EE493A3F8E493A34003F68001F2DF
:1006AF0008DFF48029E493A3F85407240CC8C3335C
:1006BF00C4540F4420C8834004F456800146F6DF2B
:1006CF00E4800B010204081020408090071FE47E95
:1006DF00019360BCA3FF543F30E509541FFEE49320
:1006EF00A360010ECF54C025E060A840B8E493A3E7
:1006FF00FAE493A3F8E493A3C8C582C8CAC583CA12
:10070F00F0A3C8C582C8CAC583CADFE9DEE780BEC9
:0107A3000055
:00000001FF
