BL51 BANKED LINKER/LOCATER V6.22                                                        04/22/2015  15:57:06  PAGE 1


BL51 BANKED LINKER/LOCATER V6.22, INVOKED BY:
C:\KEIL\C51\BIN\BL51.EXE tester.obj TO tester RAMSIZE (256) CODE (0X0000-0X0FF8)


MEMORY MODEL: LARGE


INPUT MODULES INCLUDED:
  tester.obj (TESTER)
  C:\KEIL\C51\LIB\C51L.LIB (?C_STARTUP)
  C:\KEIL\C51\LIB\C51L.LIB (?C?COPY)
  C:\KEIL\C51\LIB\C51L.LIB (?C?IMUL)
  C:\KEIL\C51\LIB\C51L.LIB (?C?UIDIV)
  C:\KEIL\C51\LIB\C51L.LIB (?C?LMUL)
  C:\KEIL\C51\LIB\C51L.LIB (?C?ULCMP)
  C:\KEIL\C51\LIB\C51L.LIB (?C?LSTXDATA)
  C:\KEIL\C51\LIB\C51L.LIB (?C?LSTKXDATA)
  C:\KEIL\C51\LIB\C51L.LIB (?C_INIT)


LINK MAP OF MODULE:  tester (TESTER)


            TYPE    BASE      LENGTH    RELOCATION   SEGMENT NAME
            -----------------------------------------------------

            * * * * * * *   D A T A   M E M O R Y   * * * * * * *
            REG     0000H     0008H     ABSOLUTE     "REG BANK 0"
                    0008H     0018H                  *** GAP ***
            BIT     0020H.0   0000H.1   UNIT         ?BI?TESTER
                    0020H.1   0000H.7                *** GAP ***
            IDATA   0021H     0020H     UNIT         ?ID?TESTER
            IDATA   0041H     0001H     UNIT         ?STACK

            * * * * * * *  X D A T A   M E M O R Y  * * * * * * *
            XDATA   0000H     0076H     UNIT         ?XD?TESTER
            XDATA   0076H     0015H     UNIT         _XDATA_GROUP_

            * * * * * * *   C O D E   M E M O R Y   * * * * * * *
            CODE    0000H     0003H     ABSOLUTE     
            CODE    0003H     001FH     UNIT         ?PR?_DELAY3?TESTER
                    0022H     0001H                  *** GAP ***
            CODE    0023H     0003H     ABSOLUTE     
            CODE    0026H     026EH     UNIT         ?PR?UART1_INT?TESTER
            CODE    0294H     01FAH     UNIT         ?C?LIB_CODE
            CODE    048EH     0175H     UNIT         ?PR?MAIN?TESTER
            CODE    0603H     0090H     UNIT         ?PR?_DISPLAYTEMP?TESTER
            CODE    0693H     008CH     UNIT         ?C_C51STARTUP
            CODE    071FH     0085H     UNIT         ?C_INITSEG
            CODE    07A4H     0082H     UNIT         ?PR?GET_TEMP?TESTER
            CODE    0826H     0075H     UNIT         ?PR?_DELAY2?TESTER
            CODE    089BH     0049H     UNIT         ?PR?_DELAY1?TESTER
            CODE    08E4H     0037H     UNIT         ?PR?READ_BYTE?TESTER
            CODE    091BH     002DH     UNIT         ?PR?_WRITE_BYTE?TESTER
            CODE    0948H     0028H     UNIT         ?PR?RESET?TESTER
            CODE    0970H     0012H     UNIT         ?PR?_WRITE_BIT?TESTER
            CODE    0982H     0011H     UNIT         ?PR?READ_BIT?TESTER
            CODE    0993H     0008H     UNIT         ?PR?_UARTSENDBYTE?TESTER
BL51 BANKED LINKER/LOCATER V6.22                                                      04/22/2015  15:57:06  PAGE 2


            CODE    099BH     0003H     UNIT         ?CO?TESTER



OVERLAY MAP OF MODULE:   tester (TESTER)


SEGMENT                            XDATA_GROUP
  +--> CALLED SEGMENT            START    LENGTH
------------------------------------------------
?PR?UART1_INT?TESTER             0076H    0004H
  +--> ?PR?_DELAY2?TESTER
  +--> ?PR?_DELAY1?TESTER

?PR?_DELAY2?TESTER               0083H    0008H

?PR?_DELAY1?TESTER               0083H    0005H

*** NEW ROOT ***************************************************

?C_C51STARTUP                    -----    -----
  +--> ?PR?MAIN?TESTER
  +--> ?C_INITSEG

?PR?MAIN?TESTER                  0082H    0001H
  +--> ?PR?_DELAY2?TESTER
  +--> ?PR?_DELAY1?TESTER
  +--> ?PR?GET_TEMP?TESTER
  +--> ?PR?_DELAY3?TESTER
  +--> ?PR?_DISPLAYTEMP?TESTER

?PR?GET_TEMP?TESTER              -----    -----
  +--> ?PR?RESET?TESTER
  +--> ?PR?_WRITE_BYTE?TESTER
  +--> ?PR?READ_BYTE?TESTER

?PR?RESET?TESTER                 -----    -----
  +--> ?PR?_DELAY3?TESTER

?PR?_WRITE_BYTE?TESTER           0083H    0002H
  +--> ?PR?_WRITE_BIT?TESTER
  +--> ?PR?_DELAY3?TESTER

?PR?_WRITE_BIT?TESTER            -----    -----
  +--> ?PR?_DELAY3?TESTER

?PR?READ_BYTE?TESTER             0083H    0002H
  +--> ?PR?READ_BIT?TESTER
  +--> ?PR?_DELAY3?TESTER

?PR?_DISPLAYTEMP?TESTER          0083H    0006H
  +--> ?CO?TESTER



SYMBOL TABLE OF MODULE:  tester (TESTER)

BL51 BANKED LINKER/LOCATER V6.22                                                      04/22/2015  15:57:06  PAGE 3


  VALUE           TYPE          NAME
  ----------------------------------

  -------         MODULE        TESTER
  C:0000H         SYMBOL        _ICE_DUMMY_
  D:0080H         PUBLIC        P0
  D:00B2H         PUBLIC        P3M0
  D:0090H         PUBLIC        P1
  D:00B1H         PUBLIC        P3M1
  D:00A0H         PUBLIC        P2
  D:00B0H         PUBLIC        P3
  D:00C0H         PUBLIC        P4
  D:00C8H         PUBLIC        P5
  C:0948H         PUBLIC        Reset
  B:0020H.0       PUBLIC        B_TX1_Busy
  B:00A8H.7       PUBLIC        EA
  B:0090H.0       PUBLIC        LED1
  B:0090H.1       PUBLIC        LED2
  X:0000H         PUBLIC        SZDLJ
  B:00B0H.7       PUBLIC        LED3
  D:00A2H         PUBLIC        P_SW1
  D:00A8H         PUBLIC        IE
  X:000DH         PUBLIC        HL
  B:0090H.6       PUBLIC        DQ
  B:00A8H.4       PUBLIC        ES
  D:00B8H         PUBLIC        IP
  I:0021H         PUBLIC        RX1_Buffer
  B:0098H.0       PUBLIC        RI
  C:0026H         PUBLIC        UART1_int
  B:00B0H.4       PUBLIC        BEEP
  B:0098H.1       PUBLIC        TI
  C:08A9H         PUBLIC        _Delay1
  C:0830H         PUBLIC        _Delay2
  D:00D8H         PUBLIC        CCON
  C:0003H         PUBLIC        _Delay3
  C:048EH         PUBLIC        main
  D:0099H         PUBLIC        SBUF
  D:0098H         PUBLIC        SCON
  C:08E4H         PUBLIC        read_byte
  D:0088H         PUBLIC        TCON
  X:000EH         PUBLIC        FSSJ
  X:001BH         PUBLIC        led1bl
  X:001CH         PUBLIC        KQFU
  X:0031H         PUBLIC        led2bl
  X:0032H         PUBLIC        WDSJ
  X:0036H         PUBLIC        led3bl
  C:07A4H         PUBLIC        Get_temp
  X:0037H         PUBLIC        TMPH
  X:0038H         PUBLIC        TMPL
  C:0982H         PUBLIC        read_bit
  B:00B0H.3       PUBLIC        DK1
  D:00F0H         PUBLIC        B
  D:008EH         PUBLIC        AUXR
  C:099BH         SYMBOL        _?ix1000
  C:091BH         PUBLIC        _write_byte
  X:0039H         PUBLIC        LYMS
  D:00E0H         PUBLIC        ACC
BL51 BANKED LINKER/LOCATER V6.22                                                      04/22/2015  15:57:06  PAGE 4


  D:00D6H         PUBLIC        T2H
  C:0970H         PUBLIC        _write_bit
  D:00D7H         PUBLIC        T2L
  X:0046H         PUBLIC        SZLY
  C:0993H         PUBLIC        _UARTSendByte
  X:006CH         PUBLIC        RX1_Cnt
  X:006DH         PUBLIC        TX1_Cnt
  B:0098H.4       PUBLIC        REN
  D:009AH         PUBLIC        S2CON
  C:0603H         PUBLIC        _DisplayTemp
  X:006EH         PUBLIC        RST
  D:00D0H         PUBLIC        PSW
  B:0090H.3       PUBLIC        K1
  B:0090H.2       PUBLIC        K2
  B:0090H.4       PUBLIC        K3
  C:089BH         SYMBOL        L?0113
  C:089EH         SYMBOL        L?0114
  C:08A1H         SYMBOL        L?0115
  -------         PROC          L?0112
  -------         ENDPROC       L?0112
  C:089BH         SYMBOL        L?0113
  C:089EH         SYMBOL        L?0114
  C:08A1H         SYMBOL        L?0115
  -------         PROC          _DELAY1
  X:0083H         SYMBOL        ms
  -------         DO            
  D:0007H         SYMBOL        i
  D:0006H         SYMBOL        j
  X:0087H         SYMBOL        k
  -------         ENDDO         
  C:08A9H         LINE#         39
  C:08AFH         LINE#         40
  C:08AFH         LINE#         42
  C:08D1H         LINE#         43
  C:08D1H         LINE#         44
  C:08D2H         LINE#         45
  C:08D3H         LINE#         46
  C:08D5H         LINE#         47
  C:08D7H         LINE#         49
  C:08D7H         LINE#         50
  C:08D9H         LINE#         51
  C:08DBH         LINE#         52
  C:08E3H         LINE#         53
  -------         ENDPROC       _DELAY1
  C:0828H         SYMBOL        L?0117
  C:082CH         SYMBOL        L?0118
  -------         PROC          L?0116
  -------         ENDPROC       L?0116
  C:0828H         SYMBOL        L?0117
  C:082CH         SYMBOL        L?0118
  -------         PROC          _DELAY2
  X:0083H         SYMBOL        cnt
  -------         DO            
  X:0087H         SYMBOL        i
  -------         ENDDO         
  C:0830H         LINE#         54
  C:0836H         LINE#         55
BL51 BANKED LINKER/LOCATER V6.22                                                      04/22/2015  15:57:06  PAGE 5


  C:0836H         LINE#         57
  C:089AH         LINE#         58
  -------         ENDPROC       _DELAY2
  -------         PROC          _DELAY3
  D:0002H         SYMBOL        N
  -------         DO            
  D:0082H         SYMBOL        i
  -------         ENDDO         
  C:0003H         LINE#         59
  C:0007H         LINE#         60
  C:0007H         LINE#         62
  C:0021H         LINE#         63
  -------         ENDPROC       _DELAY3
  -------         PROC          RESET
  -------         DO            
  D:0001H         SYMBOL        deceive_ready
  -------         ENDDO         
  C:0948H         LINE#         70
  C:0948H         LINE#         71
  C:0948H         LINE#         73
  C:094FH         LINE#         74
  C:0951H         LINE#         75
  C:0958H         LINE#         76
  C:095AH         LINE#         77
  C:0961H         LINE#         78
  C:0966H         LINE#         79
  C:096DH         LINE#         80
  C:096FH         LINE#         81
  -------         ENDPROC       RESET
  -------         PROC          READ_BIT
  -------         DO            
  D:0007H         SYMBOL        i
  -------         ENDDO         
  C:0982H         LINE#         90
  C:0982H         LINE#         91
  C:0982H         LINE#         93
  C:0984H         LINE#         94
  C:0986H         LINE#         95
  C:098DH         LINE#         96
  C:0992H         LINE#         97
  -------         ENDPROC       READ_BIT
  -------         PROC          _WRITE_BIT
  D:0007H         SYMBOL        bitval
  C:0970H         LINE#         105
  C:0970H         LINE#         106
  C:0970H         LINE#         107
  C:0972H         LINE#         108
  C:0976H         LINE#         109
  C:0978H         LINE#         110
  C:097FH         LINE#         111
  C:0981H         LINE#         112
  -------         ENDPROC       _WRITE_BIT
  -------         PROC          _WRITE_BYTE
  X:0083H         SYMBOL        val
  -------         DO            
  D:0001H         SYMBOL        i
  X:0084H         SYMBOL        temp
BL51 BANKED LINKER/LOCATER V6.22                                                      04/22/2015  15:57:06  PAGE 6


  -------         ENDDO         
  C:091BH         LINE#         120
  C:0920H         LINE#         121
  C:0920H         LINE#         123
  C:0922H         LINE#         124
  C:0922H         LINE#         125
  C:0934H         LINE#         126
  C:0938H         LINE#         127
  C:093BH         LINE#         128
  C:0942H         LINE#         129
  C:0947H         LINE#         130
  -------         ENDPROC       _WRITE_BYTE
  -------         PROC          READ_BYTE
  -------         DO            
  D:0001H         SYMBOL        i
  X:0083H         SYMBOL        m
  X:0084H         SYMBOL        receive_data
  -------         ENDDO         
  C:08E4H         LINE#         138
  C:08E4H         LINE#         139
  C:08E4H         LINE#         141
  C:08EDH         LINE#         142
  C:08EEH         LINE#         143
  C:08EEH         LINE#         144
  C:08F4H         LINE#         145
  C:08F4H         LINE#         146
  C:0909H         LINE#         147
  C:0909H         LINE#         148
  C:0910H         LINE#         149
  C:0915H         LINE#         150
  C:091AH         LINE#         151
  -------         ENDPROC       READ_BYTE
  -------         PROC          GET_TEMP
  -------         DO            
  D:0006H         SYMBOL        T
  -------         ENDDO         
  C:07A4H         LINE#         159
  C:07A4H         LINE#         160
  C:07A4H         LINE#         163
  C:07A7H         LINE#         164
  C:07ACH         LINE#         165
  C:07B1H         LINE#         166
  C:07B4H         LINE#         167
  C:07B9H         LINE#         168
  C:07BEH         LINE#         169
  C:07C6H         LINE#         170
  C:07CEH         LINE#         173
  C:07D9H         LINE#         174
  C:07E4H         LINE#         175
  C:07EDH         LINE#         176
  C:07EDH         LINE#         177
  C:07FAH         LINE#         178
  C:0813H         LINE#         179
  C:0813H         LINE#         181
  C:0813H         LINE#         182
  C:0825H         LINE#         183
  C:0825H         LINE#         184
BL51 BANKED LINKER/LOCATER V6.22                                                      04/22/2015  15:57:06  PAGE 7


  -------         ENDPROC       GET_TEMP
  -------         PROC          _UARTSENDBYTE
  D:0007H         SYMBOL        byte
  C:0993H         LINE#         185
  C:0993H         LINE#         186
  C:0993H         LINE#         187
  C:0995H         LINE#         188
  C:0998H         LINE#         189
  C:099AH         LINE#         190
  -------         ENDPROC       _UARTSENDBYTE
  -------         PROC          _DISPLAYTEMP
  X:0083H         SYMBOL        temp
  -------         DO            
  X:0085H         SYMBOL        i
  X:0086H         SYMBOL        TmpTable
  -------         ENDDO         
  C:0603H         LINE#         191
  C:060BH         LINE#         192
  C:060BH         LINE#         193
  C:060EH         LINE#         194
  C:0620H         LINE#         195
  C:0644H         LINE#         196
  C:065FH         LINE#         197
  C:0675H         LINE#         205
  C:067FH         LINE#         206
  C:0689H         LINE#         207
  C:068DH         LINE#         208
  C:0692H         LINE#         209
  -------         ENDPROC       _DISPLAYTEMP
  -------         PROC          MAIN
  -------         DO            
  X:0082H         SYMBOL        i
  -------         ENDDO         
  C:048EH         LINE#         210
  C:048EH         LINE#         211
  C:048EH         LINE#         212
  C:0493H         LINE#         213
  C:0495H         LINE#         214
  C:0499H         LINE#         215
  C:049BH         LINE#         216
  C:04A3H         LINE#         217
  C:04A6H         LINE#         227
  C:04A9H         LINE#         228
  C:04ACH         LINE#         229
  C:04AFH         LINE#         230
  C:04B2H         LINE#         231
  C:04B5H         LINE#         232
  C:04B7H         LINE#         233
  C:04B9H         LINE#         234
  C:04BBH         LINE#         235
  C:04BEH         LINE#         236
  C:04C1H         LINE#         237
  C:04C5H         LINE#         238
  C:04C7H         LINE#         239
  C:04C9H         LINE#         240
  C:04D2H         LINE#         241
  C:04E3H         LINE#         242
BL51 BANKED LINKER/LOCATER V6.22                                                      04/22/2015  15:57:06  PAGE 8


  C:04E3H         LINE#         243
  C:04F2H         LINE#         244
  C:04FAH         LINE#         245
  C:0501H         LINE#         246
  C:0512H         LINE#         247
  C:0512H         LINE#         248
  C:0521H         LINE#         249
  C:0529H         LINE#         250
  C:0530H         LINE#         251
  C:0541H         LINE#         252
  C:0541H         LINE#         253
  C:0550H         LINE#         254
  C:0558H         LINE#         255
  C:055FH         LINE#         256
  C:0570H         LINE#         257
  C:0570H         LINE#         258
  C:057FH         LINE#         259
  C:0587H         LINE#         260
  C:058EH         LINE#         261
  C:059FH         LINE#         262
  C:059FH         LINE#         263
  C:05AEH         LINE#         264
  C:05B6H         LINE#         265
  C:05BDH         LINE#         266
  C:05C0H         LINE#         267
  C:05C7H         LINE#         268
  C:05CAH         LINE#         269
  C:05D1H         LINE#         270
  C:05D1H         LINE#         271
  C:05D1H         LINE#         272
  C:05D7H         LINE#         273
  C:05DAH         LINE#         274
  C:05DAH         LINE#         275
  C:05DDH         LINE#         276
  C:05E0H         LINE#         277
  C:05E0H         LINE#         278
  C:05E2H         LINE#         279
  C:05E2H         LINE#         280
  C:05E5H         LINE#         281
  C:05E5H         LINE#         282
  C:05E8H         LINE#         283
  C:05E8H         LINE#         284
  C:05EBH         LINE#         285
  C:05EEH         LINE#         286
  C:05EEH         LINE#         287
  C:05F0H         LINE#         288
  C:05F0H         LINE#         289
  C:05F3H         LINE#         290
  C:05F3H         LINE#         291
  C:05F6H         LINE#         292
  C:05F6H         LINE#         293
  C:05F9H         LINE#         294
  C:05FCH         LINE#         295
  C:05FCH         LINE#         296
  C:05FEH         LINE#         297
  C:05FEH         LINE#         298
  -------         ENDPROC       MAIN
BL51 BANKED LINKER/LOCATER V6.22                                                      04/22/2015  15:57:06  PAGE 9


  -------         PROC          UART1_INT
  -------         DO            
  X:0076H         SYMBOL        i
  X:0077H         SYMBOL        a
  X:0078H         SYMBOL        b
  X:0079H         SYMBOL        c
  -------         ENDDO         
  C:0026H         LINE#         304
  C:0043H         LINE#         307
  C:0049H         LINE#         308
  C:0049H         LINE#         309
  C:004BH         LINE#         310
  C:0054H         LINE#         311
  C:005BH         LINE#         312
  C:005BH         LINE#         313
  C:005EH         LINE#         314
  C:0060H         LINE#         316
  C:0060H         LINE#         317
  C:0065H         LINE#         318
  C:0065H         LINE#         319
  C:0071H         LINE#         320
  C:0071H         LINE#         321
  C:008CH         LINE#         322
  C:008CH         LINE#         323
  C:00A0H         LINE#         324
  C:00A0H         LINE#         325
  C:00A6H         LINE#         326
  C:00A6H         LINE#         327
  C:00ADH         LINE#         328
  C:00ADH         LINE#         329
  C:00AFH         LINE#         330
  C:00AFH         LINE#         331
  C:00B3H         LINE#         332
  C:00B3H         LINE#         333
  C:00B5H         LINE#         334
  C:00B5H         LINE#         335
  C:00B5H         LINE#         336
  C:00B9H         LINE#         337
  C:00B9H         LINE#         338
  C:00C0H         LINE#         339
  C:00C0H         LINE#         340
  C:00C2H         LINE#         341
  C:00C2H         LINE#         342
  C:00C6H         LINE#         343
  C:00C6H         LINE#         344
  C:00C8H         LINE#         345
  C:00C8H         LINE#         346
  C:00C8H         LINE#         347
  C:00CEH         LINE#         348
  C:00CEH         LINE#         349
  C:00D5H         LINE#         350
  C:00D5H         LINE#         351
  C:00D7H         LINE#         352
  C:00D7H         LINE#         353
  C:00DBH         LINE#         354
  C:00DBH         LINE#         355
  C:00DDH         LINE#         356
BL51 BANKED LINKER/LOCATER V6.22                                                      04/22/2015  15:57:06  PAGE 10


  C:00DDH         LINE#         357
  C:00DDH         LINE#         358
  C:00DDH         LINE#         359
  C:00EDH         LINE#         360
  C:00EDH         LINE#         361
  C:00F2H         LINE#         362
  C:00F2H         LINE#         363
  C:00F9H         LINE#         364
  C:00F9H         LINE#         365
  C:00FBH         LINE#         366
  C:00FBH         LINE#         367
  C:00FFH         LINE#         368
  C:00FFH         LINE#         369
  C:0101H         LINE#         370
  C:0101H         LINE#         371
  C:0101H         LINE#         372
  C:0101H         LINE#         373
  C:011FH         LINE#         374
  C:011FH         LINE#         375
  C:012FH         LINE#         376
  C:012FH         LINE#         377
  C:0154H         LINE#         378
  C:0154H         LINE#         379
  C:0162H         LINE#         380
  C:0170H         LINE#         381
  C:017EH         LINE#         382
  C:018FH         LINE#         383
  C:018FH         LINE#         384
  C:019EH         LINE#         385
  C:01A6H         LINE#         386
  C:01ACH         LINE#         387
  C:01B2H         LINE#         388
  C:01B8H         LINE#         389
  C:01BEH         LINE#         390
  C:01C4H         LINE#         391
  C:01CAH         LINE#         393
  C:01D0H         LINE#         394
  C:01D6H         LINE#         395
  C:01DCH         LINE#         396
  C:01E2H         LINE#         397
  C:01E8H         LINE#         398
  C:01EEH         LINE#         399
  C:01F4H         LINE#         400
  C:01FAH         LINE#         401
  C:0200H         LINE#         402
  C:0206H         LINE#         403
  C:020CH         LINE#         404
  C:0212H         LINE#         405
  C:0218H         LINE#         406
  C:021EH         LINE#         407
  C:0224H         LINE#         408
  C:022AH         LINE#         409
  C:0230H         LINE#         410
  C:0236H         LINE#         411
  C:023CH         LINE#         412
  C:0242H         LINE#         413
  C:0248H         LINE#         414
BL51 BANKED LINKER/LOCATER V6.22                                                      04/22/2015  15:57:06  PAGE 11


  C:024EH         LINE#         415
  C:0254H         LINE#         416
  C:025AH         LINE#         417
  C:0260H         LINE#         418
  C:0266H         LINE#         421
  C:0266H         LINE#         422
  C:0266H         LINE#         423
  C:0268H         LINE#         425
  C:0268H         LINE#         426
  C:026DH         LINE#         427
  C:026DH         LINE#         428
  C:0272H         LINE#         429
  C:0272H         LINE#         430
  C:0272H         LINE#         431
  C:0275H         LINE#         432
  C:0275H         LINE#         433
  C:0277H         LINE#         434
  C:0279H         LINE#         435
  C:0279H         LINE#         436
  -------         ENDPROC       UART1_INT
  -------         ENDMOD        TESTER

  -------         MODULE        ?C?COPY
  C:0364H         PUBLIC        ?C?COPY
  -------         ENDMOD        ?C?COPY

  -------         MODULE        ?C?IMUL
  C:038AH         PUBLIC        ?C?IMUL
  -------         ENDMOD        ?C?IMUL

  -------         MODULE        ?C?UIDIV
  C:039CH         PUBLIC        ?C?UIDIV
  -------         ENDMOD        ?C?UIDIV

  -------         MODULE        ?C?LMUL
  C:03F1H         PUBLIC        ?C?LMUL
  -------         ENDMOD        ?C?LMUL

  -------         MODULE        ?C?ULCMP
  C:0440H         PUBLIC        ?C?ULCMP
  -------         ENDMOD        ?C?ULCMP

  -------         MODULE        ?C?LSTXDATA
  C:0451H         PUBLIC        ?C?LSTXDATA
  -------         ENDMOD        ?C?LSTXDATA

  -------         MODULE        ?C?LSTKXDATA
  C:045DH         PUBLIC        ?C?LSTKXDATA
  -------         ENDMOD        ?C?LSTKXDATA

*** WARNING L16: UNCALLED SEGMENT, IGNORED FOR OVERLAY PROCESS
    SEGMENT: ?PR?_UARTSENDBYTE?TESTER

*** WARNING L15: MULTIPLE CALL TO SEGMENT
    SEGMENT: ?PR?_DELAY2?TESTER
    CALLER1: ?PR?UART1_INT?TESTER
    CALLER2: ?C_C51STARTUP
BL51 BANKED LINKER/LOCATER V6.22                                                      04/22/2015  15:57:06  PAGE 12



*** WARNING L15: MULTIPLE CALL TO SEGMENT
    SEGMENT: ?PR?_DELAY1?TESTER
    CALLER1: ?PR?UART1_INT?TESTER
    CALLER2: ?C_C51STARTUP

Program Size: data=41.1 xdata=139 code=2461
LINK/LOCATE RUN COMPLETE.  3 WARNING(S),  0 ERROR(S)
